{
  "contractName": "CryptoLoveLetter",
  "abi": [
    {
      "constant": true,
      "inputs": [],
      "name": "pixelsPerCell",
      "outputs": [
        {
          "name": "",
          "type": "uint256"
        }
      ],
      "payable": false,
      "stateMutability": "view",
      "type": "function"
    },
    {
      "constant": true,
      "inputs": [
        {
          "name": "",
          "type": "uint256"
        }
      ],
      "name": "pages",
      "outputs": [
        {
          "name": "owner",
          "type": "address"
        },
        {
          "name": "twitterId",
          "type": "string"
        },
        {
          "name": "NSFW",
          "type": "bool"
        },
        {
          "name": "forceNSFW",
          "type": "bool"
        }
      ],
      "payable": false,
      "stateMutability": "view",
      "type": "function"
    },
    {
      "constant": true,
      "inputs": [],
      "name": "weiZIndexPrice",
      "outputs": [
        {
          "name": "",
          "type": "uint256"
        }
      ],
      "payable": false,
      "stateMutability": "view",
      "type": "function"
    },
    {
      "constant": true,
      "inputs": [],
      "name": "weiPixelPrice",
      "outputs": [
        {
          "name": "",
          "type": "uint256"
        }
      ],
      "payable": false,
      "stateMutability": "view",
      "type": "function"
    },
    {
      "inputs": [],
      "payable": false,
      "stateMutability": "nonpayable",
      "type": "constructor"
    },
    {
      "anonymous": false,
      "inputs": [
        {
          "indexed": true,
          "name": "idx",
          "type": "uint256"
        },
        {
          "indexed": false,
          "name": "owner",
          "type": "address"
        },
        {
          "indexed": false,
          "name": "x",
          "type": "uint256"
        },
        {
          "indexed": false,
          "name": "y",
          "type": "uint256"
        },
        {
          "indexed": false,
          "name": "width",
          "type": "uint256"
        },
        {
          "indexed": false,
          "name": "height",
          "type": "uint256"
        },
        {
          "indexed": false,
          "name": "celebrity",
          "type": "uint256"
        },
        {
          "indexed": false,
          "name": "z_index",
          "type": "uint256"
        }
      ],
      "name": "Buy",
      "type": "event"
    },
    {
      "anonymous": false,
      "inputs": [
        {
          "indexed": true,
          "name": "page_idx",
          "type": "uint256"
        },
        {
          "indexed": true,
          "name": "letter_idx",
          "type": "uint256"
        },
        {
          "indexed": false,
          "name": "link",
          "type": "string"
        },
        {
          "indexed": false,
          "name": "title",
          "type": "string"
        },
        {
          "indexed": false,
          "name": "NSFW",
          "type": "bool"
        }
      ],
      "name": "Publish",
      "type": "event"
    },
    {
      "anonymous": false,
      "inputs": [
        {
          "indexed": true,
          "name": "page_idx",
          "type": "uint256"
        },
        {
          "indexed": true,
          "name": "letter_idx",
          "type": "uint256"
        },
        {
          "indexed": false,
          "name": "from",
          "type": "address"
        },
        {
          "indexed": false,
          "name": "to",
          "type": "address"
        }
      ],
      "name": "SetLetterOwner",
      "type": "event"
    },
    {
      "anonymous": false,
      "inputs": [
        {
          "indexed": true,
          "name": "idx",
          "type": "uint256"
        },
        {
          "indexed": false,
          "name": "from",
          "type": "address"
        },
        {
          "indexed": false,
          "name": "to",
          "type": "address"
        }
      ],
      "name": "SetPageOwner",
      "type": "event"
    },
    {
      "constant": true,
      "inputs": [
        {
          "name": "_page_idx",
          "type": "uint256"
        }
      ],
      "name": "getLettersLength",
      "outputs": [
        {
          "name": "",
          "type": "uint256"
        }
      ],
      "payable": false,
      "stateMutability": "view",
      "type": "function"
    },
    {
      "constant": true,
      "inputs": [],
      "name": "getPageLength",
      "outputs": [
        {
          "name": "",
          "type": "uint256"
        }
      ],
      "payable": false,
      "stateMutability": "view",
      "type": "function"
    },
    {
      "constant": true,
      "inputs": [
        {
          "name": "_index",
          "type": "uint256"
        }
      ],
      "name": "getPageTwitterId",
      "outputs": [
        {
          "name": "",
          "type": "string"
        }
      ],
      "payable": false,
      "stateMutability": "view",
      "type": "function"
    },
    {
      "constant": false,
      "inputs": [
        {
          "name": "_twitterId",
          "type": "string"
        }
      ],
      "name": "newPage",
      "outputs": [
        {
          "name": "idx",
          "type": "uint256"
        }
      ],
      "payable": true,
      "stateMutability": "payable",
      "type": "function"
    },
    {
      "constant": false,
      "inputs": [
        {
          "name": "_x",
          "type": "uint256"
        },
        {
          "name": "_y",
          "type": "uint256"
        },
        {
          "name": "_width",
          "type": "uint256"
        },
        {
          "name": "_height",
          "type": "uint256"
        },
        {
          "name": "_page_idx",
          "type": "uint256"
        },
        {
          "name": "_color",
          "type": "uint256"
        },
        {
          "name": "_nickname",
          "type": "string"
        },
        {
          "name": "_contents",
          "type": "string"
        },
        {
          "name": "_link",
          "type": "string"
        }
      ],
      "name": "buy",
      "outputs": [
        {
          "name": "idx",
          "type": "uint256"
        }
      ],
      "payable": true,
      "stateMutability": "payable",
      "type": "function"
    },
    {
      "constant": false,
      "inputs": [
        {
          "name": "_idx",
          "type": "uint256"
        },
        {
          "name": "_newOwner",
          "type": "address"
        }
      ],
      "name": "setPageOwner",
      "outputs": [],
      "payable": false,
      "stateMutability": "nonpayable",
      "type": "function"
    },
    {
      "constant": false,
      "inputs": [
        {
          "name": "_page_idx",
          "type": "uint256"
        },
        {
          "name": "_letter_idx",
          "type": "uint256"
        },
        {
          "name": "_newOwner",
          "type": "address"
        }
      ],
      "name": "setLetterOwner",
      "outputs": [],
      "payable": false,
      "stateMutability": "nonpayable",
      "type": "function"
    },
    {
      "constant": false,
      "inputs": [
        {
          "name": "_page_idx",
          "type": "uint256"
        },
        {
          "name": "_letter_idx",
          "type": "uint256"
        },
        {
          "name": "_NSFW",
          "type": "bool"
        }
      ],
      "name": "forceNSFW",
      "outputs": [],
      "payable": false,
      "stateMutability": "nonpayable",
      "type": "function"
    },
    {
      "constant": false,
      "inputs": [],
      "name": "withdraw",
      "outputs": [],
      "payable": false,
      "stateMutability": "nonpayable",
      "type": "function"
    }
  ],
  "bytecode": "0x6060604052341561000f57600080fd5b33600160006101000a81548173ffffffffffffffffffffffffffffffffffffffff021916908373ffffffffffffffffffffffffffffffffffffffff16021790555033600260006101000a81548173ffffffffffffffffffffffffffffffffffffffff021916908373ffffffffffffffffffffffffffffffffffffffff1602179055506114fd806100a06000396000f3006060604052600436106100c5576000357c0100000000000000000000000000000000000000000000000000000000900463ffffffff16806313f4b42c146100ca5780633ccfd60b146100f35780635c3e9cc2146101085780636e22b449146101ed57806371529aef1461030f578063913b2c3214610338578063b9787e301461036f578063cce50ad4146103a6578063d051bd30146103f1578063d5bec84e1461048d578063d96e2564146104b6578063de015b241461051c578063fed1bf7114610545575b600080fd5b34156100d557600080fd5b6100dd610587565b6040518082815260200191505060405180910390f35b34156100fe57600080fd5b61010661058c565b005b341561011357600080fd5b6101296004808035906020019091905050610663565b604051808573ffffffffffffffffffffffffffffffffffffffff1673ffffffffffffffffffffffffffffffffffffffff168152602001806020018415151515815260200183151515158152602001828103825285818151815260200191508051906020019080838360005b838110156101af578082015181840152602081019050610194565b50505050905090810190601f1680156101dc5780820380516001836020036101000a031916815260200191505b509550505050505060405180910390f35b6102f9600480803590602001909190803590602001909190803590602001909190803590602001909190803590602001909190803590602001909190803590602001908201803590602001908080601f0160208091040260200160405190810160405280939291908181526020018383808284378201915050505050509190803590602001908201803590602001908080601f0160208091040260200160405190810160405280939291908181526020018383808284378201915050505050509190803590602001908201803590602001908080601f01602080910402602001604051908101604052809392919081815260200183838082843782019150505050505091905050610774565b6040518082815260200191505060405180910390f35b341561031a57600080fd5b610322610a12565b6040518082815260200191505060405180910390f35b341561034357600080fd5b61036d60048080359060200190919080359060200190919080351515906020019091905050610a1d565b005b341561037a57600080fd5b6103906004808035906020019091905050610c4e565b6040518082815260200191505060405180910390f35b34156103b157600080fd5b6103ef600480803590602001909190803590602001909190803573ffffffffffffffffffffffffffffffffffffffff16906020019091905050610c6e565b005b34156103fc57600080fd5b6104126004808035906020019091905050610de0565b6040518080602001828103825283818151815260200191508051906020019080838360005b83811015610452578082015181840152602081019050610437565b50505050905090810190601f16801561047f5780820380516001836020036101000a031916815260200191505b509250505060405180910390f35b341561049857600080fd5b6104a0610ea8565b6040518082815260200191505060405180910390f35b610506600480803590602001908201803590602001908080601f01602080910402602001604051908101604052809392919081815260200183838082843782019150505050505091905050610eb3565b6040518082815260200191505060405180910390f35b341561052757600080fd5b61052f610fd8565b6040518082815260200191505060405180910390f35b341561055057600080fd5b610585600480803590602001909190803573ffffffffffffffffffffffffffffffffffffffff16906020019091905050610fe5565b005b606481565b600160009054906101000a900473ffffffffffffffffffffffffffffffffffffffff1673ffffffffffffffffffffffffffffffffffffffff163373ffffffffffffffffffffffffffffffffffffffff161415156105e857600080fd5b600260009054906101000a900473ffffffffffffffffffffffffffffffffffffffff1673ffffffffffffffffffffffffffffffffffffffff166108fc3073ffffffffffffffffffffffffffffffffffffffff16319081150290604051600060405180830381858888f19350505050151561066157600080fd5b565b60038181548110151561067257fe5b90600052602060002090600302016000915090508060000160009054906101000a900473ffffffffffffffffffffffffffffffffffffffff1690806001018054600181600116156101000203166002900480601f0160208091040260200160405190810160405280929190818152602001828054600181600116156101000203166002900480156107445780601f1061071957610100808354040283529160200191610744565b820191906000526020600020905b81548152906001019060200180831161072757829003601f168201915b5050505050908060020160009054906101000a900460ff16908060020160019054906101000a900460ff16905084565b60008061077f611144565b66038d7ea4c6800060648a8c020202915060008211151561079f57600080fd5b8134101515156107ae57600080fd5b610160604051908101604052803373ffffffffffffffffffffffffffffffffffffffff1681526020018d81526020018c81526020018b81526020018a815260200188815260200187815260200186815260200185815260200160001515815260200160001515815250905060046000898152602001908152602001600020805480600101828161083e91906111cb565b91600052602060002090600a0201600083909190915060008201518160000160006101000a81548173ffffffffffffffffffffffffffffffffffffffff021916908373ffffffffffffffffffffffffffffffffffffffff1602179055506020820151816001015560408201518160020155606082015181600301556080820151816004015560a0820151816005015560c08201518160060190805190602001906108e99291906111fd565b5060e08201518160070190805190602001906109069291906111fd565b506101008201518160080190805190602001906109249291906111fd565b506101208201518160090160006101000a81548160ff0219169083151502179055506101408201518160090160016101000a81548160ff02191690831515021790555050509250827f90a4871682fa0381c1c96e1f3b85c46f6f0c966da3ef699e200fa7ba3265a906338e8e8e8e8e6001604051808873ffffffffffffffffffffffffffffffffffffffff1673ffffffffffffffffffffffffffffffffffffffff16815260200187815260200186815260200185815260200184815260200183815260200182815260200197505050505050505060405180910390a282925050509998505050505050505050565b66038d7ea4c6800081565b6000600160009054906101000a900473ffffffffffffffffffffffffffffffffffffffff1673ffffffffffffffffffffffffffffffffffffffff163373ffffffffffffffffffffffffffffffffffffffff16141515610a7b57600080fd5b6004600085815260200190815260200160002083815481101515610a9b57fe5b90600052602060002090600a02019050818160090160016101000a81548160ff02191690831515021790555082847f7eabdf99ecce04aebc35e1f7d5514a7a288c70ad5ba6601cb71557382bfbf12b83600801846006018560090160009054906101000a900460ff1680610b1d57508560090160019054906101000a900460ff165b60405180806020018060200184151515158152602001838103835286818154600181600116156101000203166002900481526020019150805460018160011615610100020316600290048015610bb45780601f10610b8957610100808354040283529160200191610bb4565b820191906000526020600020905b815481529060010190602001808311610b9757829003601f168201915b5050838103825285818154600181600116156101000203166002900481526020019150805460018160011615610100020316600290048015610c375780601f10610c0c57610100808354040283529160200191610c37565b820191906000526020600020905b815481529060010190602001808311610c1a57829003601f168201915b50509550505050505060405180910390a350505050565b600060046000838152602001908152602001600020805490509050919050565b60006004600085815260200190815260200160002083815481101515610c9057fe5b90600052602060002090600a020190508060000160009054906101000a900473ffffffffffffffffffffffffffffffffffffffff1673ffffffffffffffffffffffffffffffffffffffff163373ffffffffffffffffffffffffffffffffffffffff16141515610cfe57600080fd5b818160000160006101000a81548173ffffffffffffffffffffffffffffffffffffffff021916908373ffffffffffffffffffffffffffffffffffffffff16021790555082847fc3d90dd7be3a3b3a032da9a2d1b6ef17ce349c519a9af1afd376b3d5a33f079c3385604051808373ffffffffffffffffffffffffffffffffffffffff1673ffffffffffffffffffffffffffffffffffffffff1681526020018273ffffffffffffffffffffffffffffffffffffffff1673ffffffffffffffffffffffffffffffffffffffff1681526020019250505060405180910390a350505050565b610de861127d565b600382815481101515610df757fe5b90600052602060002090600302016001018054600181600116156101000203166002900480601f016020809104026020016040519081016040528092919081815260200182805460018160011615610100020316600290048015610e9c5780601f10610e7157610100808354040283529160200191610e9c565b820191906000526020600020905b815481529060010190602001808311610e7f57829003601f168201915b50505050509050919050565b66038d7ea4c6800081565b6000610ebd611291565b6080604051908101604052803373ffffffffffffffffffffffffffffffffffffffff16815260200184815260200160001515815260200160001515815250905060038054806001018281610f1191906112da565b9160005260206000209060030201600083909190915060008201518160000160006101000a81548173ffffffffffffffffffffffffffffffffffffffff021916908373ffffffffffffffffffffffffffffffffffffffff1602179055506020820151816001019080519060200190610f8a9291906111fd565b5060408201518160020160006101000a81548160ff02191690831515021790555060608201518160020160016101000a81548160ff0219169083151502179055505050915081915050919050565b6000600380549050905090565b6000600383815481101515610ff657fe5b906000526020600020906003020190508060000160009054906101000a900473ffffffffffffffffffffffffffffffffffffffff1673ffffffffffffffffffffffffffffffffffffffff163373ffffffffffffffffffffffffffffffffffffffff1614151561106457600080fd5b818160000160006101000a81548173ffffffffffffffffffffffffffffffffffffffff021916908373ffffffffffffffffffffffffffffffffffffffff160217905550827f4f256f4c20828b8f5331c91f8e79f1b1a0c23775705ffb3cbb96bdda2179208a3384604051808373ffffffffffffffffffffffffffffffffffffffff1673ffffffffffffffffffffffffffffffffffffffff1681526020018273ffffffffffffffffffffffffffffffffffffffff1673ffffffffffffffffffffffffffffffffffffffff1681526020019250505060405180910390a2505050565b61016060405190810160405280600073ffffffffffffffffffffffffffffffffffffffff168152602001600081526020016000815260200160008152602001600081526020016000815260200161119961130c565b81526020016111a661130c565b81526020016111b361130c565b81526020016000151581526020016000151581525090565b8154818355818115116111f857600a0281600a0283600052602060002091820191016111f79190611320565b5b505050565b828054600181600116156101000203166002900490600052602060002090601f016020900481019282601f1061123e57805160ff191683800117855561126c565b8280016001018555821561126c579182015b8281111561126b578251825591602001919060010190611250565b5b50905061127991906113e6565b5090565b602060405190810160405280600081525090565b608060405190810160405280600073ffffffffffffffffffffffffffffffffffffffff1681526020016112c261130c565b81526020016000151581526020016000151581525090565b81548183558181151161130757600302816003028360005260206000209182019101611306919061140b565b5b505050565b602060405190810160405280600081525090565b6113e391905b808211156113df57600080820160006101000a81549073ffffffffffffffffffffffffffffffffffffffff02191690556001820160009055600282016000905560038201600090556004820160009055600582016000905560068201600061138e9190611489565b60078201600061139e9190611489565b6008820160006113ae9190611489565b6009820160006101000a81549060ff02191690556009820160016101000a81549060ff021916905550600a01611326565b5090565b90565b61140891905b808211156114045760008160009055506001016113ec565b5090565b90565b61148691905b8082111561148257600080820160006101000a81549073ffffffffffffffffffffffffffffffffffffffff02191690556001820160006114519190611489565b6002820160006101000a81549060ff02191690556002820160016101000a81549060ff021916905550600301611411565b5090565b90565b50805460018160011615610100020316600290046000825580601f106114af57506114ce565b601f0160209004906000526020600020908101906114cd91906113e6565b5b505600a165627a7a72305820878a9ea3b14c2ea933b0045261ae43ef9c6e4a18858cd1ab30a42e3c1e717d160029",
  "source": "pragma solidity ^0.4.15;\n// TEST를 위한\n// CREATE 입력 변수 \"0x3f5dAEe16336A7D8b58a36F8A9B12f91b3623052\", \"0x3f5dAEe16336A7D8b58a36F8A9B12f91b3623052\"\n\ncontract CryptoLoveLetter {\n    /// Buy is emitted when an letter unit is reserved.\n    // 구매\n    event Buy(\n        uint indexed idx,\n        address owner,\n        uint x,\n        uint y,\n        uint width,\n        uint height,\n        uint celebrity,\n        uint z_index\n    );\n\n    /// Publish is emitted whenever the contents of an letter is changed.\n    // 공개\n    event Publish(\n        uint indexed page_idx,\n        uint indexed letter_idx,\n        string link,\n        string title,\n        bool NSFW\n    );\n\n    /// SetLetterOwner is emitted whenever the ownership of an letter is transfered\n    // 소유자 정하기\n    event SetLetterOwner(\n        uint indexed page_idx,\n        uint indexed letter_idx,\n        address from,\n        address to\n    );\n\n    // 소유자 정하기\n    event SetPageOwner(\n        uint indexed idx,\n        address from,\n        address to\n    );\n\n    // Z-Index당 최소금액정하기\n    uint public constant weiZIndexPrice = 1000000000000000;\n\n    /// Price is 1 kether divided by 1,000,000 pixels\n    // 최소금액정하기\n    uint public constant weiPixelPrice = 1000000000000000;\n\n    /// Each grid cell represents 100 pixels (10x10).\n    // 기준 그리드 픽셀단위\n    uint public constant pixelsPerCell = 100;\n\n    // 새로운 페이지 만드는데 필요한 Wei\n    uint weiNewPagePrice;\n\n    /// contractOwner can withdraw the funds and override NSFW status of letter units.\n    // 계약소유자\n    address contractOwner;\n\n    /// withdrawWallet is the fixed destination of funds to withdraw. It is\n    /// separate from contractOwner to allow for a cold storage destination.\n    // 출금 지갑\n    address withdrawWallet;\n\n    // Page 편지지 = 연예인 페이지\n    struct Page {\n      address owner;\n      string twitterId;\n      /// ages and workplaces.\n      bool NSFW;\n      /// forceNSFW can be set by owner.\n      bool forceNSFW;\n    }\n\n    // Letter 편지\n    struct Letter {\n        address owner;\n        uint x;\n        uint y;\n        uint width;\n        uint height;\n        uint color;\n        string nickname;\n        string contents;\n        string link;\n        /// NSFW is whether the letter is suitable for people of all\n        /// ages and workplaces.\n        bool NSFW;\n        /// forceNSFW can be set by owner.\n        bool forceNSFW;\n    }\n\n    modifier ownerOnly()\n    {\n        require(msg.sender == contractOwner);\n        _;\n    }\n\n    // 모든 편지지=연예인 페이지 들 주소\n    Page[] public pages;\n    mapping (uint => Letter[]) letters;\n\n    // 생성자 소유자, 지갑\n    function CryptoLoveLetter () public {\n        contractOwner = msg.sender;\n        withdrawWallet = msg.sender;\n    }\n\n    /// getLettersLength tells you how many letters  there are\n    // 최대 보내진 편지 수량 가져오기\n    function getLettersLength(uint _page_idx) constant returns (uint) {\n        return letters[_page_idx].length;\n    }\n\n    // 최대 보내진 편지 수량 가져오기\n    function getPageLength() constant returns (uint) {\n        return pages.length;\n    }\n\n    // Page id => 이름 가져오기\n    function getPageTwitterId(uint _index) constant returns (string) {\n        return pages[_index].twitterId;\n    }\n\n    // 새로운 연예인 추가 하기\n    function newPage(string _twitterId) payable public returns (uint idx) {\n      Page memory page = Page(msg.sender, _twitterId, false, false);\n      idx = pages.push(page);\n      return idx;\n    }\n\n    /// Letters must be purchased in 10x10 pixel blocks.\n    /// Each coordinate represents 10 pixels. That is,\n    ///   _x=5, _y=10, _width=3, _height=3\n    /// Represents a 30x30 pixel letter at coordinates (50, 100)\n    // 편지 보내기 Copying of type struct CryptoLoveLetter.Letter memory[] memory to storage not yet supported.\n    // TODO: 셀레브리티을 기준으로 계산하는것을 만든다.\n    function buy(uint _x, uint _y, uint _width, uint _height\n        , uint _page_idx\n        , uint _color\n        , string _nickname\n        , string _contents\n        , string _link\n        ) payable returns (uint idx) {\n\n        uint cost = _width * _height * pixelsPerCell * weiPixelPrice;\n        require(cost > 0);\n        require(msg.value >= cost);\n\n        Letter memory letter = Letter(msg.sender, _x, _y, _width, _height, _color, _nickname, _contents, _link, false, false);\n        idx = letters[_page_idx].push(letter);\n        Buy(idx, msg.sender, _x, _y, _width, _height, _page_idx, 1);\n        return idx;\n    }\n\n    // 연예인 편지지 페이지의 소유권을 설정한다.\n    function setPageOwner(uint _idx, address _newOwner) {\n        Page storage page = pages[ _idx];\n        require(msg.sender == page.owner);\n        page.owner = _newOwner;\n\n        SetPageOwner(_idx, msg.sender, _newOwner);\n    }\n\n    /// setLetterOwner changes the owner of an letter unit\n    // 편지의 소유권을 설정한다.\n    function setLetterOwner(uint _page_idx, uint _letter_idx, address _newOwner) {\n        Letter storage letter = letters[_page_idx][ _letter_idx];\n        require(msg.sender == letter.owner);\n        letter.owner = _newOwner;\n\n        SetLetterOwner(_page_idx, _letter_idx, msg.sender, _newOwner);\n    }\n\n    /// forceNSFW allows the owner to override the NSFW status for a specific letter unit.\n    // override기능!\n    function forceNSFW(uint _page_idx, uint _letter_idx, bool _NSFW) ownerOnly {\n        Letter storage letter = letters[_page_idx][_letter_idx];\n        letter. forceNSFW = _NSFW;\n\n        Publish(_page_idx, _letter_idx, letter.link, letter.nickname, letter.NSFW || letter.forceNSFW);\n    }\n\n    /// withdraw allows the owner to transfer out the balance of the contract.\n    // 출금\n    function withdraw() ownerOnly {\n        withdrawWallet.transfer(this.balance);\n    }\n}\n",
  "sourcePath": "/Users/cancue/Developer/eth/hack/loveletterblock-feature-hong_addTwitterList/truffle-vue/contracts/CryptoLoveLetter.sol",
  "compiler": {
    "name": "solc",
    "version": "0.4.21+commit.dfe3193c.Emscripten.clang"
  },
  "schemaVersion": "2.0.0",
  "updatedAt": "2018-04-20T14:53:17.965Z"
}